:04000000900100016A
:040001009002000267
:040002009003000364
:040003009004000461
:04000400900500055E
:04000500900600065B
:040006009007000758
:040007009008000855
:040008009009000952
:04000900900A000A4F
:04000A00900B000B4C
:04000B00900C000C49
:04000C00900D000D46
:04000D00900D000D45
:04000E00900D000D44
:04000F00900D000D43
:04001000900D000D42
:04001100900D000D41
:04001200900D000D40
:04001300900D000D3F
:04001400900D000D3E
:04001500900D000D3D
:04001600900D000D3C
:04001700900D000D3B
:04001800900D000D3A
:04001900900D000D39
:04001A00900D000D38
:04001B00900D000D37
:04001C00900D000D36
:04001D00900D000D35
:04001E00900D000D34
:04001F00900D000D33
:00000001FF
